S01100005350495F736C6176652E73726563AD
S11300000C942A000C948D030C94B6030C94DF0317
S11300100C9447000C9447000C9447000C94DB04A8
S11300200C9404050C942D050C948D040C945E041E
S11300300C9435040C94CC050C941F060C94F60512
S11300400C94F3010C9447000C9447000C94470063
S11300500C94470011241FBECFE5D8E0DEBFCDBF0E
S113006010E0A0E6B0E0E8EDFCE002C005900D92DF
S1130070A036B107D9F720E0A0E6B0E001C01D9298
S1130080A638B207E1F70E94A4010C946A060C9406
S11300900000CF93C82F41E063E085E00E9407038E
S11300A040E063E086E00E940703C4FB442740F974
S11300B061E080E00E940703C5FB442740F961E04A
S11300C081E00E940703C6FB442740F961E082E017
S11300D00E9407034C2F441F4427441F61E083E020
S11300E00E94070341E063E087E00E9407038FE971
S11300F09FE00197F1F700C0000040E063E087E073
S11301000E9407038FE99FE00197F1F700C0000008
S11301104C2F417061E080E00E940703C1FB44273B
S113012040F961E081E00E940703C2FB442740F9E3
S113013061E082E00E940703C3FB442740F961E0C9
S113014083E00E94070341E063E087E00E94070325
S11301508FE99FE00197F1F700C0000040E063E001
S113016087E00E9407038FE99FE00197F1F700C041
S11301700000CF910895CF93C82F40E063E085E05D
S11301800E94070340E063E086E00E940703C4FB8B
S1130190442740F961E080E00E940703C5FB44273F
S11301A040F961E081E00E940703C6FB442740F95F
S11301B061E082E00E9407034C2F441F4427441F40
S11301C061E083E00E94070341E063E087E00E946E
S11301D007038FE99FE00197F1F700C0000040E0BA
S11301E063E087E00E9407038FE99FE00197F1F73E
S11301F000C0000080916000882389F14C2F417079
S113020061E080E00E940703C1FB442740F961E0FC
S113021081E00E940703C2FB442740F961E082E0C9
S11302200E940703C3FB442740F961E083E00E9476
S1130230070341E063E087E00E9407038FE99FE042
S11302400197F1F700C0000040E063E087E00E94FE
S113025007038FE99FE00197F1F700C00000CF91F9
S1130260089541E063E085E00E942E0241E063E0EE
S113027086E00E942E0241E063E087E00E942E02A5
S113028041E061E080E00E942E0241E061E081E013
S11302900E942E0241E061E082E00E942E0241E0D1
S11302A061E083E00E942E022FEF89EF90E021505D
S11302B080409040E1F700C0000080E30E94BB0052
S11302C08FE99FE00197F1F700C0000080E30E94EE
S11302D0BB008FE99FE00197F1F700C0000080E3C5
S11302E00E94BB008FE99FE00197F1F700C0000076
S11302F080E20E94BB008FE99FE00197F1F700C004
S1130300000081E0809360008CE00E94BB0086E0E6
S11303100E94BB0081E00E94BB0080E80E94BB00F9
S113032008950F931F93CF938C01C0E003C00E94E4
S11303304900CF5FF801EC0FF11D80818111F7CFE7
S1130340CF911F910F910895CF93DF93CDB7DEB76F
S113035064970FB6F894DEBF0FBECDBF0F2EF0E644
S1130360EF2EF9E0FF2EF02D00E020E043E060E006
S113037083E00E94610501E020E040E060E080E06D
S11303800E9408040E94310110E00E943104E1E05F
S1130390F0E0EC0FFD1FE10FF11D80831F5F811161
S11303A0F4CF8E010F5F1F4FC8010E94B905C80129
S11303B00E94910184E1F80111928A95E9F7E4CF52
S11303C0CF93C82F40E060E00E942E0287B1807E68
S11303D087B987B18C2B87B986B1806486B9C093FD
S11303E06100CF9108951F920F920FB60F921124BE
S11303F02F933F934F935F936F937F938F939F9329
S1130400AF93BF93EF93FF93E0916300F091640087
S1130410309771F084B195B1099586B1806186B940
S113042080916200813021F4809161000E94E0019A
S1130430FF91EF91BF91AF919F918F917F916F91B8
S11304405F914F913F912F910F900FBE0F901F908E
S1130450189560E072E18AE790E008956130E1F177
S113046038F0623009F46CC0633009F49DC008951B
S1130470413069F44AB321E030E0B90102C0660FAB
S1130480771F8A95E2F7CB01842B8ABB089541112B
S11304900EC04AB321E030E0B90102C0660F771FF5
S11304A08A95E2F7CB01809584238ABB0895423074
S11304B009F0ACC04BB321E030E0B90102C0660FD3
S11304C0771F8A95E2F7CB01942F982B9BBB9AB3A5
S11304D0809589238ABB0895413069F447B321E0AC
S11304E030E0B90102C0660F771F8A95E2F7CB01AD
S11304F0842B87BB089541110EC047B321E030E03F
S1130500B90102C0660F771F8A95E2F7CB01809587
S1130510842387BB0895423009F078C048B321E0B2
S113052030E0B90102C0660F771F8A95E2F7CB016C
S1130530942F982B98BB97B38095892387BB0895F4
S1130540413069F444B321E030E0B90102C0660FE0
S1130550771F8A95E2F7CB01842B84BB0895411160
S11305600EC044B321E030E0B90102C0660F771F2A
S11305708A95E2F7CB018095842384BB08954230A9
S113058009F044C045B321E030E0B90102C0660F70
S1130590771F8A95E2F7CB01942F982B95BB94B3E0
S11305A08095892384BB0895413069F441B321E0E7
S11305B030E0B90102C0660F771F8A95E2F7CB01DC
S11305C0842B81BB089541110EC041B321E030E07A
S11305D0B90102C0660F771F8A95E2F7CB018095B7
S11305E0842381BB0895423089F442B321E030E092
S11305F0B90102C0660F771F8A95E2F7CB01942FE9
S1130600982B92BB91B38095892381BB0895613067
S113061039F138F0623009F442C0633009F45EC045
S11306200895413069F44BB321E030E0B90102C0D0
S1130630660F771F8A95E2F7CB01842B8BBB089555
S113064041116AC04BB321E030E0B90102C0660F2A
S1130650771F8A95E2F7CB01809584238BBB08959D
S1130660413069F448B321E030E0B90102C0660FBB
S1130670771F8A95E2F7CB01842B88BB089541113B
S11306804BC048B321E030E0B90102C0660F771FC8
S11306908A95E2F7CB018095842388BB0895413085
S11306A069F445B321E030E0B90102C0660F771F59
S11306B08A95E2F7CB01842B85BB089541112CC0A8
S11306C045B321E030E0B90102C0660F771F8A9577
S11306D0E2F7CB018095842385BB0895413069F40A
S11306E042B321E030E0B90102C0660F771F8A955A
S11306F0E2F7CB01842B82BB089541110DC042B3B4
S113070021E030E0B90102C0660F771F8A95E2F755
S1130710CB018095842382BB08951F920F920FB65C
S11307200F9211242F933F934F935F936F937F9373
S11307308F939F93AF93BF93EF93FF93E0916500E3
S1130740F0916600309709F00995FF91EF91BF9100
S1130750AF919F918F917F916F915F914F913F9155
S11307602F910F900FBE0F901F9018951F920F920C
S11307700FB60F9211242F933F934F935F936F9370
S11307807F938F939F93AF93BF93EF93FF93E091E6
S11307906700F0916800309709F00995FF91EF9197
S11307A0BF91AF919F918F917F916F915F914F9185
S11307B03F912F910F900FBE0F901F9018951F928D
S11307C00F920FB60F9211242F933F934F935F9381
S11307D06F937F938F939F93AF93BF93EF93FF9305
S11307E0E0916900F0916A00309709F00995FF9152
S11307F0EF91BF91AF919F918F917F916F915F9195
S11308004F913F912F910F900FBE0F901F9018950D
S11308100F931F93813021F497B3906B97BB03C060
S113082097B3906497BB02FB992790F99EB9902FD8
S11308309B7F20E2629F8001112450E1859F9001FB
S1130840112450E0440F551F440F551F440F551FEA
S11308500064022B042B092B04600DB91F910F9126
S11308600895779BFECF8FB108951F920F920FB614
S11308700F9211242F933F934F935F936F937F9322
S11308808F939F93AF93BF93EF93FF93E0916B008C
S1130890F0916C00309709F00995FF91EF91BF91A9
S11308A0AF919F918F917F916F915F914F913F9104
S11308B02F910F900FBE0F901F9018951F920F92BB
S11308C00FB60F9211242F933F934F935F936F931F
S11308D07F938F939F93AF93BF93EF93FF93E09195
S11308E07200F0917300309709F0099588B7816020
S11308F088BF8091760082BFFF91EF91BF91AF9145
S11309009F918F917F916F915F914F913F912F9123
S11309100F900FBE0F901F9018951F920F920FB655
S11309200F9211242F933F934F935F936F937F9371
S11309308F939F93AF93BF93EF93FF938091710035
S11309408823F1F080916E008F5F80936E00909108
S11309506D00891738F040E06091700080916F005D
S11309600E94070380916E00843688F041E0609114
S1130970700080916F000E94070310926E0007C000
S1130980E0917400F0917500309709F0099588B7EB
S1130990826088BFFF91EF91BF91AF919F918F913A
S11309A07F916F915F914F913F912F910F900FBE67
S11309B00F901F9018951F920F920FB60F9211244B
S11309C02F933F934F935F936F937F938F939F9353
S11309D0AF93BF93EF93FF93E0917E00F0917F007C
S11309E0309709F00995FF91EF91BF91AF919F91D5
S11309F08F917F916F915F914F913F912F910F90C4
S1130A000FBE0F901F9018951F920F920FB60F9262
S1130A1011242F933F934F935F936F937F938F93FF
S1130A209F93AF93BF93EF93FF93E0917C00F0917A
S1130A307D00309709F00995FF91EF91BF91AF9137
S1130A409F918F917F916F915F914F913F912F91E2
S1130A500F900FBE0F901F9018951F920F920FB614
S1130A600F9211242F933F934F935F936F937F9330
S1130A708F939F93AF93BF93EF93FF9380917900EC
S1130A808F5F80937900E0917A00F0917B0030973A
S1130A9009F0099580917700909178009DBD8CBDF7
S1130AA0FF91EF91BF91AF919F918F917F916F9142
S1130AB05F914F913F912F910F900FBE0F901F9018
S1130AC01895DF92EF92FF920F931F93CF93DF93CA
S1130AD0D82E162FC42FD22F611110C00E942902C4
S1130AE0970122953295307F3227207F322740E0CC
S1130AF050E00E944806215031090BC00E9429028F
S1130B009701220F331F40E050E00E944806215015
S1130B10310980B58F7780BD30BD29B9DD0CDD0C7E
S1130B20DD0CDAB880B5806880BD80E4189FB00120
S1130B30112480E1D89F9001112410E0000F111FAF
S1130B40000F111F000F111F4C2F50E0440F551FB1
S1130B506068622B062B402B40BDDF91CF911F9123
S1130B600F91FF90EF90DF9008955D9BFECF8CB9BD
S1130B7008950F931F93CF938C01C0E003C00E948C
S1130B80B505CF5FF801EC0FF11D80818111F7CF1E
S1130B90CF911F910F9108951F920F920FB60F924C
S1130BA011242F933F934F935F936F937F938F936E
S1130BB09F93AF93BF93EF93FF93E0918000F091E5
S1130BC08100309711F08CB10995FF91EF91BF919D
S1130BD0AF919F918F917F916F915F914F913F91D1
S1130BE02F910F900FBE0F901F9018951F920F9288
S1130BF00FB60F9211242F933F934F935F936F93EC
S1130C007F938F939F93AF93BF93EF93FF93E09161
S1130C108400F0918500309709F00995FF91EF91D8
S1130C20BF91AF919F918F917F916F915F914F9100
S1130C303F912F910F900FBE0F901F9018951F9208
S1130C400F920FB60F9211242F933F934F935F93FC
S1130C506F937F938F939F93AF93BF93EF93FF9380
S1130C60E0918200F0918300309709F00995FF919B
S1130C70EF91BF91AF919F918F917F916F915F9110
S1130C804F913F912F910F900FBE0F901F90189589
S1130C90A1E21A2EAA1BBB1BFD010DC0AA1FBB1F7C
S1130CA0EE1FFF1FA217B307E407F50720F0A21BEE
S1130CB0B30BE40BF50B661F771F881F991F1A945B
S1130CC069F760957095809590959B01AC01BD0185
S10B0CD0CF010895F894FFCF51
S9030000FC
